{
  "address": "0x5FbDB2315678afecb367f032d93F642f64180aa3",
  "abi": [
    {
      "inputs": [],
      "stateMutability": "nonpayable",
      "type": "constructor"
    },
    {
      "anonymous": false,
      "inputs": [
        {
          "indexed": true,
          "internalType": "address",
          "name": "athlete",
          "type": "address"
        },
        {
          "indexed": false,
          "internalType": "uint256",
          "name": "timestamp",
          "type": "uint256"
        }
      ],
      "name": "AthleteInfoUpdated",
      "type": "event"
    },
    {
      "anonymous": false,
      "inputs": [
        {
          "indexed": true,
          "internalType": "address",
          "name": "athlete",
          "type": "address"
        },
        {
          "indexed": false,
          "internalType": "enum AthleteRegistration.SportCategory",
          "name": "category",
          "type": "uint8"
        },
        {
          "indexed": false,
          "internalType": "uint256",
          "name": "timestamp",
          "type": "uint256"
        }
      ],
      "name": "AthleteRegistered",
      "type": "event"
    },
    {
      "anonymous": false,
      "inputs": [
        {
          "indexed": true,
          "internalType": "address",
          "name": "athlete",
          "type": "address"
        },
        {
          "indexed": false,
          "internalType": "string",
          "name": "name",
          "type": "string"
        },
        {
          "indexed": false,
          "internalType": "uint32",
          "name": "age",
          "type": "uint32"
        },
        {
          "indexed": false,
          "internalType": "uint32",
          "name": "contact",
          "type": "uint32"
        },
        {
          "indexed": false,
          "internalType": "bool",
          "name": "ageRequirementMet",
          "type": "bool"
        }
      ],
      "name": "DecryptionResultsAvailable",
      "type": "event"
    },
    {
      "inputs": [
        {
          "internalType": "address",
          "name": "",
          "type": "address"
        }
      ],
      "name": "authorizedOperators",
      "outputs": [
        {
          "internalType": "bool",
          "name": "",
          "type": "bool"
        }
      ],
      "stateMutability": "view",
      "type": "function"
    },
    {
      "inputs": [
        {
          "internalType": "enum AthleteRegistration.SportCategory",
          "name": "",
          "type": "uint8"
        }
      ],
      "name": "categoryMinAges",
      "outputs": [
        {
          "internalType": "uint32",
          "name": "",
          "type": "uint32"
        }
      ],
      "stateMutability": "view",
      "type": "function"
    },
    {
      "inputs": [],
      "name": "checkAgeRequirement",
      "outputs": [
        {
          "internalType": "ebool",
          "name": "",
          "type": "bytes32"
        }
      ],
      "stateMutability": "nonpayable",
      "type": "function"
    },
    {
      "inputs": [
        {
          "internalType": "string",
          "name": "decryptedName",
          "type": "string"
        },
        {
          "internalType": "uint32",
          "name": "decryptedAge",
          "type": "uint32"
        },
        {
          "internalType": "uint32",
          "name": "decryptedContact",
          "type": "uint32"
        }
      ],
      "name": "finalizeDecryption",
      "outputs": [],
      "stateMutability": "nonpayable",
      "type": "function"
    },
    {
      "inputs": [
        {
          "internalType": "address",
          "name": "athlete",
          "type": "address"
        },
        {
          "internalType": "string",
          "name": "decryptedName",
          "type": "string"
        },
        {
          "internalType": "uint32",
          "name": "decryptedAge",
          "type": "uint32"
        },
        {
          "internalType": "uint32",
          "name": "decryptedContact",
          "type": "uint32"
        }
      ],
      "name": "finalizeResults",
      "outputs": [],
      "stateMutability": "nonpayable",
      "type": "function"
    },
    {
      "inputs": [],
      "name": "getAllEncryptedAthleteInfo",
      "outputs": [
        {
          "internalType": "bytes",
          "name": "encryptedName",
          "type": "bytes"
        },
        {
          "internalType": "bytes",
          "name": "encryptedAge",
          "type": "bytes"
        },
        {
          "internalType": "bytes",
          "name": "encryptedContact",
          "type": "bytes"
        },
        {
          "internalType": "enum AthleteRegistration.SportCategory",
          "name": "sportCategory",
          "type": "uint8"
        },
        {
          "internalType": "uint256",
          "name": "timestamp",
          "type": "uint256"
        }
      ],
      "stateMutability": "view",
      "type": "function"
    },
    {
      "inputs": [
        {
          "internalType": "uint256",
          "name": "index",
          "type": "uint256"
        }
      ],
      "name": "getAthleteAtIndex",
      "outputs": [
        {
          "internalType": "address",
          "name": "",
          "type": "address"
        }
      ],
      "stateMutability": "view",
      "type": "function"
    },
    {
      "inputs": [
        {
          "internalType": "address",
          "name": "athlete",
          "type": "address"
        }
      ],
      "name": "getDecryptedAthleteInfo",
      "outputs": [
        {
          "internalType": "string",
          "name": "decryptedName",
          "type": "string"
        },
        {
          "internalType": "uint32",
          "name": "decryptedAge",
          "type": "uint32"
        },
        {
          "internalType": "uint32",
          "name": "decryptedContact",
          "type": "uint32"
        },
        {
          "internalType": "enum AthleteRegistration.SportCategory",
          "name": "sportCategory",
          "type": "uint8"
        },
        {
          "internalType": "bool",
          "name": "ageRequirementMet",
          "type": "bool"
        }
      ],
      "stateMutability": "view",
      "type": "function"
    },
    {
      "inputs": [],
      "name": "getEncryptedAge",
      "outputs": [
        {
          "internalType": "bytes",
          "name": "",
          "type": "bytes"
        }
      ],
      "stateMutability": "view",
      "type": "function"
    },
    {
      "inputs": [],
      "name": "getEncryptedContact",
      "outputs": [
        {
          "internalType": "bytes",
          "name": "",
          "type": "bytes"
        }
      ],
      "stateMutability": "view",
      "type": "function"
    },
    {
      "inputs": [],
      "name": "getEncryptedData",
      "outputs": [
        {
          "internalType": "uint256",
          "name": "",
          "type": "uint256"
        },
        {
          "internalType": "uint256",
          "name": "",
          "type": "uint256"
        },
        {
          "internalType": "uint256",
          "name": "",
          "type": "uint256"
        }
      ],
      "stateMutability": "view",
      "type": "function"
    },
    {
      "inputs": [],
      "name": "getEncryptedName",
      "outputs": [
        {
          "internalType": "bytes",
          "name": "",
          "type": "bytes"
        }
      ],
      "stateMutability": "view",
      "type": "function"
    },
    {
      "inputs": [],
      "name": "getRegistrationTimestamp",
      "outputs": [
        {
          "internalType": "uint256",
          "name": "",
          "type": "uint256"
        }
      ],
      "stateMutability": "view",
      "type": "function"
    },
    {
      "inputs": [],
      "name": "getSportCategory",
      "outputs": [
        {
          "internalType": "enum AthleteRegistration.SportCategory",
          "name": "",
          "type": "uint8"
        }
      ],
      "stateMutability": "view",
      "type": "function"
    },
    {
      "inputs": [],
      "name": "getTotalAthletes",
      "outputs": [
        {
          "internalType": "uint256",
          "name": "",
          "type": "uint256"
        }
      ],
      "stateMutability": "view",
      "type": "function"
    },
    {
      "inputs": [],
      "name": "isAthleteRegistered",
      "outputs": [
        {
          "internalType": "bool",
          "name": "",
          "type": "bool"
        }
      ],
      "stateMutability": "view",
      "type": "function"
    },
    {
      "inputs": [],
      "name": "protocolId",
      "outputs": [
        {
          "internalType": "uint256",
          "name": "",
          "type": "uint256"
        }
      ],
      "stateMutability": "pure",
      "type": "function"
    },
    {
      "inputs": [
        {
          "internalType": "uint256",
          "name": "nameHandle",
          "type": "uint256"
        },
        {
          "internalType": "bytes",
          "name": "nameInputProof",
          "type": "bytes"
        },
        {
          "internalType": "uint256",
          "name": "ageHandle",
          "type": "uint256"
        },
        {
          "internalType": "bytes",
          "name": "ageInputProof",
          "type": "bytes"
        },
        {
          "internalType": "uint256",
          "name": "contactHandle",
          "type": "uint256"
        },
        {
          "internalType": "bytes",
          "name": "contactInputProof",
          "type": "bytes"
        },
        {
          "internalType": "uint8",
          "name": "_sportCategory",
          "type": "uint8"
        }
      ],
      "name": "registerAthlete",
      "outputs": [],
      "stateMutability": "nonpayable",
      "type": "function"
    },
    {
      "inputs": [
        {
          "internalType": "bytes",
          "name": "encryptedName",
          "type": "bytes"
        },
        {
          "internalType": "bytes",
          "name": "encryptedAge",
          "type": "bytes"
        },
        {
          "internalType": "bytes",
          "name": "encryptedContact",
          "type": "bytes"
        },
        {
          "internalType": "uint8",
          "name": "_sportCategory",
          "type": "uint8"
        }
      ],
      "name": "registerAthleteSimple",
      "outputs": [],
      "stateMutability": "nonpayable",
      "type": "function"
    },
    {
      "inputs": [],
      "name": "totalAthletes",
      "outputs": [
        {
          "internalType": "uint256",
          "name": "",
          "type": "uint256"
        }
      ],
      "stateMutability": "view",
      "type": "function"
    }
  ],
  "transactionHash": "0x7001c01d28ddf3c876d733e4e5e76f3e75abc8b2a9d28054a7f86af5e930b1bc",
  "args": [],
  "numDeployments": 1,
  "solcInputHash": "01bb690ee8fced735d76e027b1aaca1f",
  "bytecode": "0x608060405234801561000f575f5ffd5b5061018a6100ae604080516080810182525f80825260208201819052918101829052606081019190915250604080516080810182527350157cffd6bbfa2dece204a89ec419c23ef5755d815273cd3ab3bd6bcc0c0bf3e27912a92043e817b1cf69602082015273a02cda4ca3a71d7c46997716f4283aa851c2881291810191909152731364cbbf2cdf5032c47d8226a6f6fbd2afcdacac606082015290565b80517f9e7b61f58c47dc699ac88507c4f5bb9f121c03808c5676a8078fe583e464970080546001600160a01b03199081166001600160a01b039384161790915560208301517f9e7b61f58c47dc699ac88507c4f5bb9f121c03808c5676a8078fe583e46497018054831691841691909117905560408301517f9e7b61f58c47dc699ac88507c4f5bb9f121c03808c5676a8078fe583e46497028054831691841691909117905560608301517f9e7b61f58c47dc699ac88507c4f5bb9f121c03808c5676a8078fe583e46497038054909216921691909117905550565b7fad3228b676f7d3cd4284a5443f17f1962b36e491b30a40b2405849e597ba5fb5805463ffffffff1990811660089081179092557fada5013122d395ba3c54772283fb069b10426056ef8ca54750cb9bb552a59e7d80548216600a1790557fabbb5caa7dda850e60932de0934eb1f9d0f59695050f761dc64e443e5030a56980548216600c1790557f101e368776582e57ab3d116ffe2517c0a585cd5b23174b01e275c2d8329c3d8380548216600e1790557f52d75039926638d3c558b2bdefb945d5be8dae29dedd1c313212a4d472d9fde5805490911690911790555f6003819055338152600460205260409020805460ff19166001179055612092806102915f395ff3fe608060405234801561000f575f5ffd5b5060043610610163575f3560e01c806388b12b1a116100c7578063bba6b0181161007d578063d9d0924111610063578063d9d09241146102f3578063da1f12ab14610317578063e13658c31461031f575f5ffd5b8063bba6b018146102d6578063cdba3cca146102de575f5ffd5b8063ad33cfcb116100ad578063ad33cfcb14610285578063ad34b4b614610298578063b5e74e6d146102ab575f5ffd5b806388b12b1a14610275578063a7063c651461027d575f5ffd5b806353b7fe9b1161011c5780636b59f7ff116101025780636b59f7ff146102365780637ef508bb1461023f57806381e3f4a014610262575f5ffd5b806353b7fe9b1461021957806365829db514610221575f5ffd5b8063181d989b1161014c578063181d989b146101cc578063266b99db146101ee5780635289b15914610204575f5ffd5b806308c52145146101675780630e2b21e414610192575b5f5ffd5b335f9081526001602052604090206005015460ff165b60405190151581526020015b60405180910390f35b6101b76101a03660046119a0565b5f6020819052908152604090205463ffffffff1681565b60405163ffffffff9091168152602001610189565b61017d6101da3660046119e0565b60046020525f908152604090205460ff1681565b6101f6610338565b604051908152602001610189565b61020c6103ac565b6040516101899190611a27565b61020c610497565b61023461022f366004611a8e565b610505565b005b6101f660035481565b610247610968565b60408051938452602084019290925290820152606001610189565b610234610270366004611bef565b610ba9565b6002546101f6565b6101f6610d48565b610234610293366004611c5a565b610dac565b6102346102a6366004611cb4565b610f32565b6102be6102b9366004611d7e565b611364565b6040516001600160a01b039091168152602001610189565b61020c6113e4565b6102e6611451565b6040516101899190611dbd565b6103066103013660046119e0565b6114b8565b604051610189959493929190611dcb565b6127116101f6565b61032761168b565b604051610189959493929190611e16565b335f9081526001602052604081206005015460ff1661038b5760405162461bcd60e51b815260206004820152601660248201525f5160206120665f395f51905f5260448201526064015b60405180910390fd5b335f908152600160208190526040909120906103a6906118c2565b91505090565b335f9081526001602052604090206005015460609060ff166103fd5760405162461bcd60e51b815260206004820152601660248201525f5160206120665f395f51905f526044820152606401610382565b335f908152600160205260409020805461041690611e6e565b80601f016020809104026020016040519081016040528092919081815260200182805461044290611e6e565b801561048d5780601f106104645761010080835404028352916020019161048d565b820191905f5260205f20905b81548152906001019060200180831161047057829003601f168201915b5050505050905090565b335f9081526001602052604090206005015460609060ff166104e85760405162461bcd60e51b815260206004820152601660248201525f5160206120665f395f51905f526044820152606401610382565b335f90815260016020819052604090912001805461041690611e6e565b335f9081526001602052604090206005015460ff16156105675760405162461bcd60e51b815260206004820152601a60248201527f4174686c65746520616c726561647920726567697374657265640000000000006044820152606401610382565b856105b45760405162461bcd60e51b815260206004820152601e60248201527f456e63727970746564206e616d652063616e6e6f7420626520656d70747900006044820152606401610382565b836106015760405162461bcd60e51b815260206004820152601d60248201527f456e63727970746564206167652063616e6e6f7420626520656d7074790000006044820152606401610382565b816106585760405162461bcd60e51b815260206004820152602160248201527f456e6372797074656420636f6e746163742063616e6e6f7420626520656d70746044820152607960f81b6064820152608401610382565b60048160ff1611156106ac5760405162461bcd60e51b815260206004820152601660248201527f496e76616c69642073706f72742063617465676f7279000000000000000000006044820152606401610382565b5f8160ff1660048111156106c2576106c2611d95565b604080516101606020601f8c01819004028201810190925261014081018a81529293509182918b908b90819085018382808284375f92019190915250505090825250604080516020601f8a01819004810282018101909252888152918101919089908990819084018382808284375f92019190915250505090825250604080516020601f8801819004810282018101909252868152918101919087908790819084018382808284375f9201919091525050509082525060200182600481111561078d5761078d611d95565b815242602080830191909152600160408084018290525f6060850181905281518085018352818152608086015260a0850181905260c090940184905233845291529020815181906107de9082611ef2565b50602082015160018201906107f39082611ef2565b50604082015160028201906108089082611ef2565b50606082015160038201805460ff1916600183600481111561082c5761082c611d95565b02179055506080820151600482015560a082015160058201805460c085015115156101000261ff00199315159390931661ffff199091161791909117905560e0820151600682019061087e9082611ef2565b50610100820151600790910180546101209093015163ffffffff9081166401000000000267ffffffffffffffff19909416921691909117919091179055600280546001810182555f9182527f405787fa12a823e0f2b7631cc41b3ba8828b3321ca811111fa75cd3aa3bb5ace01805473ffffffffffffffffffffffffffffffffffffffff191633179055600380549161091683611fad565b9190505550336001600160a01b03167f2e2eaf7f81096ca45a693fa53daffbba5ea140026868d31e61f7fea1a2ff256f8242604051610956929190611fd1565b60405180910390a25050505050505050565b335f90815260016020526040812060058101548291829160ff166109bb5760405162461bcd60e51b815260206004820152601660248201525f5160206120665f395f51905f526044820152606401610382565b5f815f0180546109ca90611e6e565b80601f01602080910402602001604051908101604052809291908181526020018280546109f690611e6e565b8015610a415780601f10610a1857610100808354040283529160200191610a41565b820191905f5260205f20905b815481529060010190602001808311610a2457829003601f168201915b5050505050806020019051810190610a599190611fec565b90505f826001018054610a6b90611e6e565b80601f0160208091040260200160405190810160405280929190818152602001828054610a9790611e6e565b8015610ae25780601f10610ab957610100808354040283529160200191610ae2565b820191905f5260205f20905b815481529060010190602001808311610ac557829003601f168201915b5050505050806020019051810190610afa9190611fec565b90505f836002018054610b0c90611e6e565b80601f0160208091040260200160405190810160405280929190818152602001828054610b3890611e6e565b8015610b835780601f10610b5a57610100808354040283529160200191610b83565b820191905f5260205f20905b815481529060010190602001808311610b6657829003601f168201915b5050505050806020019051810190610b9b9190611fec565b929791965091945092505050565b6001600160a01b0384165f908152600160205260409020600581015460ff16610c015760405162461bcd60e51b815260206004820152601660248201525f5160206120665f395f51905f526044820152606401610382565b6005810154610100900460ff1615610c5b5760405162461bcd60e51b815260206004820152601160248201527f416c72656164792066696e616c697a65640000000000000000000000000000006044820152606401610382565b60068101610c698582611ef2565b5060078101805463ffffffff8481166401000000000267ffffffffffffffff199092169086161717905560058101805461ff00191661010017905560038101545f908190819060ff166004811115610cc357610cc3611d95565b6004811115610cd457610cd4611d95565b8152602081019190915260409081015f2054905163ffffffff9182169250908516821115906001600160a01b038816907f6588a3f8baff8a1e2ebea28308fc6930c8563b8620870d488ac5f7f3b92ceea590610d37908990899089908790612003565b60405180910390a250505050505050565b335f9081526001602052604081206005015460ff16610d965760405162461bcd60e51b815260206004820152601660248201525f5160206120665f395f51905f526044820152606401610382565b50335f9081526001602052604090206004015490565b335f908152600160205260409020600581015460ff16610dfb5760405162461bcd60e51b815260206004820152601660248201525f5160206120665f395f51905f526044820152606401610382565b6005810154610100900460ff1615610e555760405162461bcd60e51b815260206004820152601160248201527f416c7265616479206465637279707465640000000000000000000000000000006044820152606401610382565b60068101610e638582611ef2565b5060078101805463ffffffff8481166401000000000267ffffffffffffffff199092169086161717905560058101805461ff001916610100179055600381015433907f6588a3f8baff8a1e2ebea28308fc6930c8563b8620870d488ac5f7f3b92ceea5908690869086905f90819060ff166004811115610ee557610ee5611d95565b6004811115610ef657610ef6611d95565b8152602081019190915260409081015f20549051610f249493929163ffffffff908116908b16101590612003565b60405180910390a250505050565b335f9081526001602052604090206005015460ff1615610f945760405162461bcd60e51b815260206004820152601a60248201527f4174686c65746520616c726561647920726567697374657265640000000000006044820152606401610382565b87610fe15760405162461bcd60e51b815260206004820181905260248201527f4e616d6520696e7075742070726f6f662063616e6e6f7420626520656d7074796044820152606401610382565b8461102e5760405162461bcd60e51b815260206004820152601f60248201527f41676520696e7075742070726f6f662063616e6e6f7420626520656d707479006044820152606401610382565b816110875760405162461bcd60e51b815260206004820152602360248201527f436f6e7461637420696e7075742070726f6f662063616e6e6f7420626520656d60448201526270747960e81b6064820152608401610382565b60048160ff1611156110db5760405162461bcd60e51b815260206004820152601660248201527f496e76616c69642073706f72742063617465676f7279000000000000000000006044820152606401610382565b5f8160ff1660048111156110f1576110f1611d95565b90506040518061014001604052808c60405160200161111291815260200190565b60405160208183030381529060405281526020018960405160200161113991815260200190565b60405160208183030381529060405281526020018660405160200161116091815260200190565b604051602081830303815290604052815260200182600481111561118657611186611d95565b815242602080830191909152600160408084018290525f6060850181905281518085018352818152608086015260a0850181905260c090940184905233845291529020815181906111d79082611ef2565b50602082015160018201906111ec9082611ef2565b50604082015160028201906112019082611ef2565b50606082015160038201805460ff1916600183600481111561122557611225611d95565b02179055506080820151600482015560a082015160058201805460c085015115156101000261ff00199315159390931661ffff199091161791909117905560e082015160068201906112779082611ef2565b50610100820151600790910180546101209093015163ffffffff9081166401000000000267ffffffffffffffff19909416921691909117919091179055600280546001810182555f9182527f405787fa12a823e0f2b7631cc41b3ba8828b3321ca811111fa75cd3aa3bb5ace01805473ffffffffffffffffffffffffffffffffffffffff191633179055600380549161130f83611fad565b9190505550336001600160a01b03167f2e2eaf7f81096ca45a693fa53daffbba5ea140026868d31e61f7fea1a2ff256f824260405161134f929190611fd1565b60405180910390a25050505050505050505050565b6002545f9082106113b75760405162461bcd60e51b815260206004820152601360248201527f496e646578206f7574206f6620626f756e6473000000000000000000000000006044820152606401610382565b600282815481106113ca576113ca61203a565b5f918252602090912001546001600160a01b031692915050565b335f9081526001602052604090206005015460609060ff166114355760405162461bcd60e51b815260206004820152601660248201525f5160206120665f395f51905f526044820152606401610382565b335f908152600160205260409020600201805461041690611e6e565b335f9081526001602052604081206005015460ff1661149f5760405162461bcd60e51b815260206004820152601660248201525f5160206120665f395f51905f526044820152606401610382565b50335f9081526001602052604090206003015460ff1690565b6001600160a01b0381165f90815260016020526040812060058101546060929182918291829160ff1661151a5760405162461bcd60e51b815260206004820152601660248201525f5160206120665f395f51905f526044820152606401610382565b6005810154610100900460ff166115735760405162461bcd60e51b815260206004820152601d60248201527f496e666f726d6174696f6e206e6f7420796574206465637279707465640000006044820152606401610382565b60038101545f908190819060ff16600481111561159257611592611d95565b60048111156115a3576115a3611d95565b815260208101919091526040015f20546007830154600384015460068501805463ffffffff94851695508385168681101595929490936401000000009091049092169160ff1690859085906115f790611e6e565b80601f016020809104026020016040519081016040528092919081815260200182805461162390611e6e565b801561166e5780601f106116455761010080835404028352916020019161166e565b820191905f5260205f20905b81548152906001019060200180831161165157829003601f168201915b505050505094509750975097509750975050505091939590929450565b335f908152600160205260408120600501546060918291829190819060ff166116e35760405162461bcd60e51b815260206004820152601660248201525f5160206120665f395f51905f526044820152606401610382565b335f9081526001602081905260409091206003810154600482015482549293849390840192600285019260ff90911691859061171e90611e6e565b80601f016020809104026020016040519081016040528092919081815260200182805461174a90611e6e565b80156117955780601f1061176c57610100808354040283529160200191611795565b820191905f5260205f20905b81548152906001019060200180831161177857829003601f168201915b505050505094508380546117a890611e6e565b80601f01602080910402602001604051908101604052809291908181526020018280546117d490611e6e565b801561181f5780601f106117f65761010080835404028352916020019161181f565b820191905f5260205f20905b81548152906001019060200180831161180257829003601f168201915b5050505050935082805461183290611e6e565b80601f016020809104026020016040519081016040528092919081815260200182805461185e90611e6e565b80156118a95780601f10611880576101008083540402835291602001916118a9565b820191905f5260205f20905b81548152906001019060200180831161188c57829003601f168201915b5050505050925095509550955095509550509091929394565b5f6118dd826118d1575f6118d4565b60015b60ff165f6118e3565b92915050565b7f9e7b61f58c47dc699ac88507c4f5bb9f121c03808c5676a8078fe583e464970154604051639cd07acb60e01b81525f917f9e7b61f58c47dc699ac88507c4f5bb9f121c03808c5676a8078fe583e4649700916001600160a01b0390911690639cd07acb90611958908790879060040161204e565b6020604051808303815f875af1158015611974573d5f5f3e3d5ffd5b505050506040513d601f19601f820116820180604052508101906119989190611fec565b949350505050565b5f602082840312156119b0575f5ffd5b8135600581106119be575f5ffd5b9392505050565b80356001600160a01b03811681146119db575f5ffd5b919050565b5f602082840312156119f0575f5ffd5b6119be826119c5565b5f81518084528060208401602086015e5f602082860101526020601f19601f83011685010191505092915050565b602081525f6119be60208301846119f9565b5f5f83601f840112611a49575f5ffd5b50813567ffffffffffffffff811115611a60575f5ffd5b602083019150836020828501011115611a77575f5ffd5b9250929050565b803560ff811681146119db575f5ffd5b5f5f5f5f5f5f5f6080888a031215611aa4575f5ffd5b873567ffffffffffffffff811115611aba575f5ffd5b611ac68a828b01611a39565b909850965050602088013567ffffffffffffffff811115611ae5575f5ffd5b611af18a828b01611a39565b909650945050604088013567ffffffffffffffff811115611b10575f5ffd5b611b1c8a828b01611a39565b9094509250611b2f905060608901611a7e565b905092959891949750929550565b634e487b7160e01b5f52604160045260245ffd5b5f82601f830112611b60575f5ffd5b813567ffffffffffffffff811115611b7a57611b7a611b3d565b604051601f8201601f19908116603f0116810167ffffffffffffffff81118282101715611ba957611ba9611b3d565b604052818152838201602001851015611bc0575f5ffd5b816020850160208301375f918101602001919091529392505050565b803563ffffffff811681146119db575f5ffd5b5f5f5f5f60808587031215611c02575f5ffd5b611c0b856119c5565b9350602085013567ffffffffffffffff811115611c26575f5ffd5b611c3287828801611b51565b935050611c4160408601611bdc565b9150611c4f60608601611bdc565b905092959194509250565b5f5f5f60608486031215611c6c575f5ffd5b833567ffffffffffffffff811115611c82575f5ffd5b611c8e86828701611b51565b935050611c9d60208501611bdc565b9150611cab60408501611bdc565b90509250925092565b5f5f5f5f5f5f5f5f5f5f60e08b8d031215611ccd575f5ffd5b8a35995060208b013567ffffffffffffffff811115611cea575f5ffd5b611cf68d828e01611a39565b909a5098505060408b0135965060608b013567ffffffffffffffff811115611d1c575f5ffd5b611d288d828e01611a39565b90975095505060808b0135935060a08b013567ffffffffffffffff811115611d4e575f5ffd5b611d5a8d828e01611a39565b9094509250611d6d905060c08c01611a7e565b90509295989b9194979a5092959850565b5f60208284031215611d8e575f5ffd5b5035919050565b634e487b7160e01b5f52602160045260245ffd5b60058110611db957611db9611d95565b9052565b602081016118dd8284611da9565b60a081525f611ddd60a08301886119f9565b905063ffffffff8616602083015263ffffffff85166040830152611e046060830185611da9565b82151560808301529695505050505050565b60a081525f611e2860a08301886119f9565b8281036020840152611e3a81886119f9565b90508281036040840152611e4e81876119f9565b915050611e5e6060830185611da9565b8260808301529695505050505050565b600181811c90821680611e8257607f821691505b602082108103611ea057634e487b7160e01b5f52602260045260245ffd5b50919050565b601f821115611eed57805f5260205f20601f840160051c81016020851015611ecb5750805b601f840160051c820191505b81811015611eea575f8155600101611ed7565b50505b505050565b815167ffffffffffffffff811115611f0c57611f0c611b3d565b611f2081611f1a8454611e6e565b84611ea6565b6020601f821160018114611f52575f8315611f3b5750848201515b5f19600385901b1c1916600184901b178455611eea565b5f84815260208120601f198516915b82811015611f815787850151825560209485019460019092019101611f61565b5084821015611f9e57868401515f19600387901b60f8161c191681555b50505050600190811b01905550565b5f60018201611fca57634e487b7160e01b5f52601160045260245ffd5b5060010190565b60408101611fdf8285611da9565b8260208301529392505050565b5f60208284031215611ffc575f5ffd5b5051919050565b608081525f61201560808301876119f9565b63ffffffff958616602084015293909416604082015290151560609091015292915050565b634e487b7160e01b5f52603260045260245ffd5b8281526040810160548310611fdf57611fdf611d9556fe4174686c657465206e6f74207265676973746572656400000000000000000000a164736f6c634300081b000a",
  "devdoc": {
    "details": "Implements encrypted athlete data storage with age validation for sport categoriesSimilar to Persona-Shard: real FHE operations on all networks including testnet",
    "kind": "dev",
    "methods": {
      "checkAgeRequirement()": {
        "returns": {
          "_0": "Encrypted boolean indicating if age requirement is met"
        }
      },
      "finalizeDecryption(string,uint32,uint32)": {
        "params": {
          "decryptedAge": "The decrypted age",
          "decryptedContact": "The decrypted contact",
          "decryptedName": "The decrypted name"
        }
      },
      "finalizeResults(address,string,uint32,uint32)": {
        "params": {
          "athlete": "The athlete address",
          "decryptedAge": "The decrypted age value",
          "decryptedContact": "The decrypted contact value",
          "decryptedName": "The decrypted name value"
        }
      },
      "getAllEncryptedAthleteInfo()": {
        "returns": {
          "encryptedAge": "Encrypted age",
          "encryptedContact": "Encrypted contact",
          "encryptedName": "Encrypted name",
          "sportCategory": "Sport category",
          "timestamp": "Registration timestamp"
        }
      },
      "getAthleteAtIndex(uint256)": {
        "params": {
          "index": "Index in the registered athletes array"
        },
        "returns": {
          "_0": "Athlete address"
        }
      },
      "getDecryptedAthleteInfo(address)": {
        "params": {
          "athlete": "The athlete address to query"
        }
      },
      "getEncryptedAge()": {
        "returns": {
          "_0": "Encrypted age value"
        }
      },
      "getEncryptedContact()": {
        "returns": {
          "_0": "Encrypted contact value"
        }
      },
      "getEncryptedData()": {
        "details": "Returns actual FHE encrypted handles for client-side decryption",
        "returns": {
          "_0": "encName Encrypted name as euint32 handle",
          "_1": "encAge Encrypted age as euint32 handle",
          "_2": "encContact Encrypted contact as euint32 handle"
        }
      },
      "getEncryptedName()": {
        "returns": {
          "_0": "Encrypted name value"
        }
      },
      "getRegistrationTimestamp()": {
        "returns": {
          "_0": "Timestamp value"
        }
      },
      "getSportCategory()": {
        "returns": {
          "_0": "Sport category value"
        }
      },
      "getTotalAthletes()": {
        "returns": {
          "_0": "Total athlete count"
        }
      },
      "isAthleteRegistered()": {
        "returns": {
          "_0": "True if athlete is registered, false otherwise"
        }
      },
      "registerAthlete(uint256,bytes,uint256,bytes,uint256,bytes,uint8)": {
        "details": "Real FHE encryption mode",
        "params": {
          "_sportCategory": "Sport category (0-4)",
          "ageHandle": "FHE encrypted age handle",
          "ageInputProof": "Proof for age encryption",
          "contactHandle": "FHE encrypted contact handle",
          "contactInputProof": "Proof for contact encryption",
          "nameHandle": "FHE encrypted name handle",
          "nameInputProof": "Proof for name encryption"
        }
      },
      "registerAthleteSimple(bytes,bytes,bytes,uint8)": {
        "details": "Fallback mode for when FHE is not available",
        "params": {
          "_sportCategory": "Sport category (0-4)",
          "encryptedAge": "Encrypted age as bytes",
          "encryptedContact": "Encrypted contact as bytes",
          "encryptedName": "Encrypted name as bytes"
        }
      }
    },
    "title": "Athlete Registration Contract with FHE",
    "version": 1
  },
  "userdoc": {
    "events": {
      "AthleteInfoUpdated(address,uint256)": {
        "notice": "Event emitted when athlete info is updated"
      },
      "AthleteRegistered(address,uint8,uint256)": {
        "notice": "Event emitted when an athlete registers"
      },
      "DecryptionResultsAvailable(address,string,uint32,uint32,bool)": {
        "notice": "Event emitted when decryption results are available"
      }
    },
    "kind": "user",
    "methods": {
      "authorizedOperators(address)": {
        "notice": "Authorized operators who can perform administrative operations"
      },
      "categoryMinAges(uint8)": {
        "notice": "Minimum age requirements for different sport categories"
      },
      "checkAgeRequirement()": {
        "notice": "Check if athlete meets minimum age requirement for their category (FHE operation)"
      },
      "constructor": {
        "notice": "Constructor to set minimum age requirements for sport categories"
      },
      "finalizeDecryption(string,uint32,uint32)": {
        "notice": "Mark athlete information as decrypted (called after client-side FHE decryption)"
      },
      "finalizeResults(address,string,uint32,uint32)": {
        "notice": "Finalize decryption results (called by anyone after off-chain decryption)"
      },
      "getAllEncryptedAthleteInfo()": {
        "notice": "Get all encrypted athlete information for the caller"
      },
      "getAthleteAtIndex(uint256)": {
        "notice": "Get athlete address at specific index"
      },
      "getDecryptedAthleteInfo(address)": {
        "notice": "Get decrypted athlete information (only available after decryption)"
      },
      "getEncryptedAge()": {
        "notice": "Get encrypted age for the caller"
      },
      "getEncryptedContact()": {
        "notice": "Get encrypted contact for the caller"
      },
      "getEncryptedData()": {
        "notice": "Get encrypted athlete data for decryption"
      },
      "getEncryptedName()": {
        "notice": "Get encrypted name for the caller"
      },
      "getRegistrationTimestamp()": {
        "notice": "Get registration timestamp"
      },
      "getSportCategory()": {
        "notice": "Get sport category for the caller"
      },
      "getTotalAthletes()": {
        "notice": "Get total number of registered athletes"
      },
      "isAthleteRegistered()": {
        "notice": "Check if athlete is registered"
      },
      "registerAthlete(uint256,bytes,uint256,bytes,uint256,bytes,uint8)": {
        "notice": "Register athlete with FHE encrypted data"
      },
      "registerAthleteSimple(bytes,bytes,bytes,uint8)": {
        "notice": "Register athlete with simple byte encryption (fallback)"
      },
      "totalAthletes()": {
        "notice": "Total number of registered athletes"
      }
    },
    "notice": "Privacy-preserving athlete registration system using Fully Homomorphic Encryption",
    "version": 1
  },
  "storageLayout": {
    "storage": [
      {
        "astId": 39050,
        "contract": "contracts/AthleteRegistration.sol:AthleteRegistration",
        "label": "categoryMinAges",
        "offset": 0,
        "slot": "0",
        "type": "t_mapping(t_enum(SportCategory)39044,t_uint32)"
      },
      {
        "astId": 39079,
        "contract": "contracts/AthleteRegistration.sol:AthleteRegistration",
        "label": "athleteRegistrations",
        "offset": 0,
        "slot": "1",
        "type": "t_mapping(t_address,t_struct(AthleteInfo)39073_storage)"
      },
      {
        "astId": 39083,
        "contract": "contracts/AthleteRegistration.sol:AthleteRegistration",
        "label": "registeredAthletes",
        "offset": 0,
        "slot": "2",
        "type": "t_array(t_address)dyn_storage"
      },
      {
        "astId": 39086,
        "contract": "contracts/AthleteRegistration.sol:AthleteRegistration",
        "label": "totalAthletes",
        "offset": 0,
        "slot": "3",
        "type": "t_uint256"
      },
      {
        "astId": 39091,
        "contract": "contracts/AthleteRegistration.sol:AthleteRegistration",
        "label": "authorizedOperators",
        "offset": 0,
        "slot": "4",
        "type": "t_mapping(t_address,t_bool)"
      }
    ],
    "types": {
      "t_address": {
        "encoding": "inplace",
        "label": "address",
        "numberOfBytes": "20"
      },
      "t_array(t_address)dyn_storage": {
        "base": "t_address",
        "encoding": "dynamic_array",
        "label": "address[]",
        "numberOfBytes": "32"
      },
      "t_bool": {
        "encoding": "inplace",
        "label": "bool",
        "numberOfBytes": "1"
      },
      "t_bytes_storage": {
        "encoding": "bytes",
        "label": "bytes",
        "numberOfBytes": "32"
      },
      "t_enum(SportCategory)39044": {
        "encoding": "inplace",
        "label": "enum AthleteRegistration.SportCategory",
        "numberOfBytes": "1"
      },
      "t_mapping(t_address,t_bool)": {
        "encoding": "mapping",
        "key": "t_address",
        "label": "mapping(address => bool)",
        "numberOfBytes": "32",
        "value": "t_bool"
      },
      "t_mapping(t_address,t_struct(AthleteInfo)39073_storage)": {
        "encoding": "mapping",
        "key": "t_address",
        "label": "mapping(address => struct AthleteRegistration.AthleteInfo)",
        "numberOfBytes": "32",
        "value": "t_struct(AthleteInfo)39073_storage"
      },
      "t_mapping(t_enum(SportCategory)39044,t_uint32)": {
        "encoding": "mapping",
        "key": "t_enum(SportCategory)39044",
        "label": "mapping(enum AthleteRegistration.SportCategory => uint32)",
        "numberOfBytes": "32",
        "value": "t_uint32"
      },
      "t_string_storage": {
        "encoding": "bytes",
        "label": "string",
        "numberOfBytes": "32"
      },
      "t_struct(AthleteInfo)39073_storage": {
        "encoding": "inplace",
        "label": "struct AthleteRegistration.AthleteInfo",
        "members": [
          {
            "astId": 39053,
            "contract": "contracts/AthleteRegistration.sol:AthleteRegistration",
            "label": "encryptedName",
            "offset": 0,
            "slot": "0",
            "type": "t_bytes_storage"
          },
          {
            "astId": 39055,
            "contract": "contracts/AthleteRegistration.sol:AthleteRegistration",
            "label": "encryptedAge",
            "offset": 0,
            "slot": "1",
            "type": "t_bytes_storage"
          },
          {
            "astId": 39057,
            "contract": "contracts/AthleteRegistration.sol:AthleteRegistration",
            "label": "encryptedContact",
            "offset": 0,
            "slot": "2",
            "type": "t_bytes_storage"
          },
          {
            "astId": 39060,
            "contract": "contracts/AthleteRegistration.sol:AthleteRegistration",
            "label": "sportCategory",
            "offset": 0,
            "slot": "3",
            "type": "t_enum(SportCategory)39044"
          },
          {
            "astId": 39062,
            "contract": "contracts/AthleteRegistration.sol:AthleteRegistration",
            "label": "registrationTimestamp",
            "offset": 0,
            "slot": "4",
            "type": "t_uint256"
          },
          {
            "astId": 39064,
            "contract": "contracts/AthleteRegistration.sol:AthleteRegistration",
            "label": "isRegistered",
            "offset": 0,
            "slot": "5",
            "type": "t_bool"
          },
          {
            "astId": 39066,
            "contract": "contracts/AthleteRegistration.sol:AthleteRegistration",
            "label": "decrypted",
            "offset": 1,
            "slot": "5",
            "type": "t_bool"
          },
          {
            "astId": 39068,
            "contract": "contracts/AthleteRegistration.sol:AthleteRegistration",
            "label": "decryptedName",
            "offset": 0,
            "slot": "6",
            "type": "t_string_storage"
          },
          {
            "astId": 39070,
            "contract": "contracts/AthleteRegistration.sol:AthleteRegistration",
            "label": "decryptedAge",
            "offset": 0,
            "slot": "7",
            "type": "t_uint32"
          },
          {
            "astId": 39072,
            "contract": "contracts/AthleteRegistration.sol:AthleteRegistration",
            "label": "decryptedContact",
            "offset": 4,
            "slot": "7",
            "type": "t_uint32"
          }
        ],
        "numberOfBytes": "256"
      },
      "t_uint256": {
        "encoding": "inplace",
        "label": "uint256",
        "numberOfBytes": "32"
      },
      "t_uint32": {
        "encoding": "inplace",
        "label": "uint32",
        "numberOfBytes": "4"
      }
    }
  }
}